{
  "contractName": "PublicVote",
  "abi": [
    {
      "constant": true,
      "inputs": [
        {
          "name": "",
          "type": "bytes30"
        }
      ],
      "name": "votes",
      "outputs": [
        {
          "name": "owner",
          "type": "address"
        },
        {
          "name": "numItems",
          "type": "uint8"
        }
      ],
      "payable": false,
      "stateMutability": "view",
      "type": "function"
    },
    {
      "constant": false,
      "inputs": [
        {
          "name": "name",
          "type": "bytes30"
        },
        {
          "name": "numItems",
          "type": "uint8"
        }
      ],
      "name": "establishVote",
      "outputs": [],
      "payable": false,
      "stateMutability": "nonpayable",
      "type": "function"
    },
    {
      "constant": false,
      "inputs": [
        {
          "name": "nameOfVote",
          "type": "bytes30"
        },
        {
          "name": "item",
          "type": "bytes15"
        },
        {
          "name": "index",
          "type": "uint8"
        }
      ],
      "name": "addItem",
      "outputs": [],
      "payable": false,
      "stateMutability": "nonpayable",
      "type": "function"
    },
    {
      "constant": false,
      "inputs": [
        {
          "name": "name",
          "type": "bytes30"
        },
        {
          "name": "candidateIndex",
          "type": "uint8"
        }
      ],
      "name": "voteFor",
      "outputs": [],
      "payable": true,
      "stateMutability": "payable",
      "type": "function"
    },
    {
      "constant": true,
      "inputs": [
        {
          "name": "nameOfVote",
          "type": "bytes30"
        },
        {
          "name": "index",
          "type": "uint8"
        }
      ],
      "name": "getCandidates",
      "outputs": [
        {
          "name": "",
          "type": "bytes15"
        }
      ],
      "payable": false,
      "stateMutability": "view",
      "type": "function"
    },
    {
      "constant": true,
      "inputs": [
        {
          "name": "nameOfVote",
          "type": "bytes30"
        },
        {
          "name": "index",
          "type": "uint8"
        }
      ],
      "name": "getAmounts",
      "outputs": [
        {
          "name": "",
          "type": "uint256"
        }
      ],
      "payable": false,
      "stateMutability": "view",
      "type": "function"
    }
  ],
  "bytecode": "0x608060405234801561001057600080fd5b50610679806100206000396000f300608060405260043610610078576000357c0100000000000000000000000000000000000000000000000000000000900463ffffffff1680631b5221ef1461007d578063304d23f9146100af5780634416b0831461010c5780635246b6d71461014b5780636f21a21e1461019e57806389bb8f0714610219575b600080fd5b6100ad600480360381019080803561ffff19169060200190929190803560ff169060200190929190505050610298565b005b3480156100bb57600080fd5b5061010a600480360381019080803561ffff19169060200190929190803570ffffffffffffffffffffffffffffffffff19169060200190929190803560ff1690602001909291905050506102d7565b005b34801561011857600080fd5b50610149600480360381019080803561ffff19169060200190929190803560ff1690602001909291905050506103d2565b005b34801561015757600080fd5b50610188600480360381019080803561ffff19169060200190929190803560ff1690602001909291905050506104ef565b6040518082815260200191505060405180910390f35b3480156101aa57600080fd5b506101db600480360381019080803561ffff19169060200190929190803560ff169060200190929190505050610530565b604051808270ffffffffffffffffffffffffffffffffff191670ffffffffffffffffffffffffffffffffff1916815260200191505060405180910390f35b34801561022557600080fd5b50610249600480360381019080803561ffff1916906020019092919050505061059d565b604051808373ffffffffffffffffffffffffffffffffffffffff1673ffffffffffffffffffffffffffffffffffffffff1681526020018260ff1660ff1681526020019250505060405180910390f35b346000808461ffff191661ffff1916815260200190815260200160002060020160008360ff1660ff168152602001908152602001600020819055505050565b3373ffffffffffffffffffffffffffffffffffffffff166000808561ffff191661ffff1916815260200190815260200160002060000160009054906101000a900473ffffffffffffffffffffffffffffffffffffffff1673ffffffffffffffffffffffffffffffffffffffff1614151561035057600080fd5b816000808561ffff191661ffff191681526020019081526020016000206001018260ff1681548110151561038057fe5b9060005260206000209060029182820401919006600f026101000a8154816effffffffffffffffffffffffffffff02191690837101000000000000000000000000000000000090040217905550505050565b600073ffffffffffffffffffffffffffffffffffffffff166000808461ffff191661ffff1916815260200190815260200160002060000160009054906101000a900473ffffffffffffffffffffffffffffffffffffffff1673ffffffffffffffffffffffffffffffffffffffff1614151561044c57600080fd5b60148160ff1610151561045e57600080fd5b336000808461ffff191661ffff1916815260200190815260200160002060000160006101000a81548173ffffffffffffffffffffffffffffffffffffffff021916908373ffffffffffffffffffffffffffffffffffffffff1602179055508060ff166000808461ffff191661ffff19168152602001908152602001600020600101816104ea91906105ee565b505050565b60008060008461ffff191661ffff1916815260200190815260200160002060020160008360ff1660ff16815260200190815260200160002054905092915050565b60008060008461ffff191661ffff191681526020019081526020016000206001018260ff1681548110151561056157fe5b9060005260206000209060029182820401919006600f029054906101000a90047101000000000000000000000000000000000002905092915050565b60006020528060005260406000206000915090508060000160009054906101000a900473ffffffffffffffffffffffffffffffffffffffff16908060000160149054906101000a900460ff16905082565b8154818355818111156106235760010160029004816001016002900483600052602060002091820191016106229190610628565b5b505050565b61064a91905b8082111561064657600081600090555060010161062e565b5090565b905600a165627a7a723058201ec32b4c47fcc88864737abafc0a91b74a330e6af3363a88f58525549d0dcb7e0029",
  "source": "pragma solidity ^0.4.24;\r\n\r\ncontract PublicVote {\r\n    struct Vote {\r\n        address owner;\r\n        uint8 numItems;\r\n        bytes15[] candidates;\r\n        mapping(uint8 => uint256) amount;\r\n    }\r\n\r\n    //storage of items for each vote\r\n    mapping(bytes30 => Vote) public votes;\r\n\r\n    //@dev Creates a new vote\r\n    //@param name The name of the vote\r\n    function establishVote(bytes30 name, uint8 numItems) public {\r\n        require(votes[name].owner == address(0));\r\n        require(numItems < 20);\r\n        votes[name].owner = msg.sender;\r\n        votes[name].candidates.length = numItems;\r\n    }\r\n\r\n    function addItem(bytes30 nameOfVote, bytes15 item, uint8 index) public {\r\n        require(votes[nameOfVote].owner == msg.sender);\r\n        votes[nameOfVote].candidates[index] = item;\r\n    }\r\n\r\n    function voteFor(bytes30 name, uint8 candidateIndex) public payable {\r\n        votes[name].amount[candidateIndex] = msg.value;\r\n    }\r\n\r\n    /*function getCandidatesLength(bytes30 nameOfVote) returns(uint256) public {\r\n      return votes[nameOfVote].candidates.length;\r\n    }*/\r\n\r\n    /*\r\n      **FUNCTIONS FOR TESTING PURPOSES**\r\n    */\r\n    function getCandidates(bytes30 nameOfVote, uint8 index) public view returns (bytes15) {\r\n      return votes[nameOfVote].candidates[index];\r\n    }\r\n    function getAmounts(bytes30 nameOfVote, uint8 index) public view returns (uint256) {\r\n      return votes[nameOfVote].amount[index];\r\n    }\r\n}\r\n",
  "sourcePath": "/mnt/e/Development/Ethereum+Truffle/Public-Vote/truffle/contracts/PublicVote.sol",
  "compiler": {
    "name": "solc",
    "version": "0.4.24+commit.e67f0147.Emscripten.clang"
  },
  "schemaVersion": "2.0.0",
  "updatedAt": "2018-07-18T22:35:41.996Z"
}