{
  "contractName": "PublicVote",
  "abi": [
    {
      "constant": true,
      "inputs": [
        {
          "name": "",
          "type": "bytes30"
        }
      ],
      "name": "votes",
      "outputs": [
        {
          "name": "owner",
          "type": "address"
        }
      ],
      "payable": false,
      "stateMutability": "view",
      "type": "function"
    },
    {
      "constant": false,
      "inputs": [
        {
          "name": "name",
          "type": "bytes30"
        },
        {
          "name": "numItems",
          "type": "uint8"
        }
      ],
      "name": "establishVote",
      "outputs": [],
      "payable": false,
      "stateMutability": "nonpayable",
      "type": "function"
    },
    {
      "constant": false,
      "inputs": [
        {
          "name": "nameOfVote",
          "type": "bytes30"
        },
        {
          "name": "item",
          "type": "bytes15"
        },
        {
          "name": "index",
          "type": "uint8"
        }
      ],
      "name": "addItem",
      "outputs": [],
      "payable": false,
      "stateMutability": "nonpayable",
      "type": "function"
    },
    {
      "constant": false,
      "inputs": [
        {
          "name": "name",
          "type": "bytes30"
        },
        {
          "name": "candidateIndex",
          "type": "uint8"
        }
      ],
      "name": "vote",
      "outputs": [],
      "payable": true,
      "stateMutability": "payable",
      "type": "function"
    }
  ],
  "bytecode": "0x608060405234801561001057600080fd5b506104fa806100206000396000f300608060405260043610610062576000357c0100000000000000000000000000000000000000000000000000000000900463ffffffff16806328c377b314610067578063304d23f9146100995780634416b083146100f657806389bb8f0714610135575b600080fd5b610097600480360381019080803561ffff19169060200190929190803560ff1690602001909291905050506101a7565b005b3480156100a557600080fd5b506100f4600480360381019080803561ffff19169060200190929190803570ffffffffffffffffffffffffffffffffff19169060200190929190803560ff1690602001909291905050506101e6565b005b34801561010257600080fd5b50610133600480360381019080803561ffff19169060200190929190803560ff169060200190929190505050610314565b005b34801561014157600080fd5b50610165600480360381019080803561ffff19169060200190929190505050610431565b604051808273ffffffffffffffffffffffffffffffffffffffff1673ffffffffffffffffffffffffffffffffffffffff16815260200191505060405180910390f35b346000808461ffff191661ffff1916815260200190815260200160002060020160008360ff1660ff168152602001908152602001600020819055505050565b6000808461ffff191661ffff19168152602001908152602001600020600101805490508160ff1610151561021957600080fd5b3373ffffffffffffffffffffffffffffffffffffffff166000808561ffff191661ffff1916815260200190815260200160002060000160009054906101000a900473ffffffffffffffffffffffffffffffffffffffff1673ffffffffffffffffffffffffffffffffffffffff1614151561029257600080fd5b816000808561ffff191661ffff191681526020019081526020016000206001018260ff168154811015156102c257fe5b9060005260206000209060029182820401919006600f026101000a8154816effffffffffffffffffffffffffffff02191690837101000000000000000000000000000000000090040217905550505050565b600073ffffffffffffffffffffffffffffffffffffffff166000808461ffff191661ffff1916815260200190815260200160002060000160009054906101000a900473ffffffffffffffffffffffffffffffffffffffff1673ffffffffffffffffffffffffffffffffffffffff1614151561038e57600080fd5b60148160ff161015156103a057600080fd5b336000808461ffff191661ffff1916815260200190815260200160002060000160006101000a81548173ffffffffffffffffffffffffffffffffffffffff021916908373ffffffffffffffffffffffffffffffffffffffff1602179055508060ff166000808461ffff191661ffff191681526020019081526020016000206001018161042c919061046f565b505050565b60006020528060005260406000206000915090508060000160009054906101000a900473ffffffffffffffffffffffffffffffffffffffff16905081565b8154818355818111156104a45760010160029004816001016002900483600052602060002091820191016104a391906104a9565b5b505050565b6104cb91905b808211156104c75760008160009055506001016104af565b5090565b905600a165627a7a72305820c6a393beaaa20a0f173f0cc70d4566caba944aa8ab36dd149bd3b7c87c918a430029",
  "source": "pragma solidity ^0.4.24;\r\n\r\ncontract PublicVote {\r\n    struct Vote {\r\n        address owner;\r\n        bytes15[] candidates;\r\n        mapping(uint8 => uint256) amount;\r\n    }\r\n\r\n    //storage of items for each vote\r\n    mapping(bytes30 => Vote) public votes;\r\n\r\n    //@dev Creates a new vote\r\n    //@param name The name of the vote\r\n    function establishVote(bytes30 name, uint8 numItems) public {\r\n        require(votes[name].owner == address(0));\r\n        require(numItems < 20);\r\n        votes[name].owner = msg.sender;\r\n        votes[name].candidates.length = numItems;\r\n    }\r\n\r\n    function addItem(bytes30 nameOfVote, bytes15 item, uint8 index) public {\r\n        require(index < votes[nameOfVote].candidates.length);\r\n        require(votes[nameOfVote].owner == msg.sender);\r\n        votes[nameOfVote].candidates[index] = item;\r\n    }\r\n\r\n    function vote(bytes30 name, uint8 candidateIndex) public payable {\r\n        votes[name].amount[candidateIndex] = msg.value;\r\n    }\r\n}\r\n",
  "sourcePath": "/mnt/e/Development/Ethereum+Truffle/Public-Vote/truffle/contracts/PublicVote.sol",
  "compiler": {
    "name": "solc",
    "version": "0.4.24+commit.e67f0147.Emscripten.clang"
  },
  "schemaVersion": "2.0.0",
  "updatedAt": "2018-05-30T00:05:06.383Z"
}